:100000000C9434000C9451000C9451000C94510049
:100010000C9451000C9451000C9451000C9451001C
:100020000C9451000C9451000C9451000C9451000C
:100030000C9451000C9451000C9451000C945100FC
:100040000C9451000C9451000C9451000C945100EC
:100050000C9451000C9451000C9451000C945100DC
:100060000C9451000C94510011241FBECFEFD8E026
:10007000DEBFCDBF11E0A0E0B1E0E2EAFFE002C0E8
:1000800005900D92AA3DB107D9F722E0AAEDB1E0A3
:1000900001C01D92A83EB207E1F70E94F7030C943D
:1000A000CF070C9400008091C00087FFFCCF8091A7
:1000B000C60008959091C00095FFFCCF8093C600C4
:1000C00008959093C5008093C40088E18093C10097
:1000D00008952A98962F9F71892B8EBD0DB407FE27
:1000E000FDCF1EBC0DB407FEFDCF67FD03C02A9AED
:1000F0008EB508951EBC0DB407FEFDCFF8CF2A982B
:100100006F71862B8EBD0DB407FEFDCF4EBD0DB4B5
:1001100007FEFDCF2A9A0895FB012A982AE32EBDF7
:100120000DB407FEFDCF8E0F9F1FE817F90739F0BA
:100130001EBC0DB407FEFDCF2EB52193F6CF108265
:100140002A9A08952A982AE72EBD0DB407FEFDCFFE
:10015000860F971F6817790741F0FB012191BF01B6
:100160002EBD0DB407FEFDCFF5CF2A9A08951F933B
:10017000CF93DF93182F1076C12FD0E02091D702B4
:1001800030E0C217D30789F043E06FE180EA0E94B4
:100190007F00AE0185E0559547958A95E1F76FE1BF
:1001A00080E80E947F001093D702DF91CF911F91CA
:1001B0000895A1E0B0E0EFEDF0E00C94E404682FC6
:1001C00069830E94B700698180E00E9469002196DE
:1001D000E2E00C940005A1E0B0E0E1EFF0E00C9467
:1001E000E304182F69830E94B7004981612F80E4DE
:1001F0000E947F002196E3E00C94FF04A1E0B0E0B0
:10020000E4E0F1E00C94E304162F682F84ED798389
:100210000E94EB00612F86ED0E94EB007981672F31
:1002200087ED0E94EB008AEE0E94D90080FF04C097
:1002300088E28A95F1F7F7CF2196E3E00C94FF046A
:10024000CF93DF93EC01229A2A9A84B18C6284B90D
:1002500024982A9A2B982D9880E58CBD8DB58160C5
:100260008DBD4FEF60E08FEF0E947F0082E390E052
:100270000E9468021092D6021092D50260E088E0D7
:100280000E94EB0060E089E00E94EB0060E08CE0FF
:100290000E94EB0060E08DE00E94EB006EEF8AE0D0
:1002A0000E94EB0069E18BE00E94EB006FEF84E0BD
:1002B0000E94EB0069E185E00E94EB006FEF86E0B1
:1002C0000E94EB006FE187E00E94EB0060EB88E3A7
:1002D0000E94EB006FE388E20E94EB0060E389E29A
:1002E0000E94EB0069EF80E30E94EB0067EF81E37F
:1002F0000E94EB006DE080EC0E94EB0060E081EC7E
:100300000E94EB0042E362EC80E80E947F0062E121
:1003100086EC0E94EB006CE087EC0E94EB0062E14F
:1003200084EC0E94EB0064EF8AEC0E94EB0061E039
:100330008BEC0E94EB00688184EE0E94EB006981E7
:1003400085EE0E94EB006A8182EE0E94EB006B81D9
:1003500083EE0E94EB006C8180EE0E94EB006D81C9
:1003600081EE0E94EB0060E071E080E10E94FE00FF
:100370008FE10E94B70040EC6BE180E80E947F00B3
:1003800044E06FE180E80E947F00DF91CF91089503
:1003900082E70E94D90008950F931F93CF93DF93B4
:1003A000EC018B016FEF82E00E94EB0069E183E0DA
:1003B0000E94EB006C2F615086E00E94EB00CE01A2
:1003C0008150964E692F87E00E94EB0040E060E08C
:1003D0008AE70E947F00B801CE010E94A20048E097
:1003E0006FE180E80E947F008CE10E94D90081FFCC
:1003F00005C048E06FE180EA0E947F00DF91CF9165
:100400001F910F910895A0E0B0E0E9E0F2E00C94B4
:10041000DB046C017B0189E30E94D900882309F485
:1004200050C06091D502C091D60280E00E94EB00DE
:100430006C2F81E00E94EB0060E08AE30E9469007B
:10044000082F60E08AE30E94690010E0182B1093E7
:10045000D6020093D50260E08AE30E946900C82FAB
:1004600060E08AE30E946900982E60E08AE30E94BF
:100470006900A82EB12C60E08AE30E946900A7FE03
:100480000FC0960121503109D0E0D92924972C17AB
:100490003D0708F4E901B701CE010E948C0002C0BB
:1004A000C0E0D0E0602F8CE00E94EB00612F8DE077
:1004B0000E94EB0040E46EE180E80E947F00CE01E4
:1004C00002C080E090E0CDB7DEB7EBE00C94F7041B
:1004D000009741F0EFE7F7E03197F1F700C0000037
:1004E0000197F6CF08959FE088E10FB6F894A8959C
:1004F000809360000FBE909360000895A8950895C2
:10050000EF92FF920F931F93CF93DF937C01FB0138
:10051000413051F4AB014850510960E070E04F5E4A
:100520005F4F6F4F7F4F0FC0423051F4AB014850C7
:10053000510960E070E04A5F5F4F6F4F7F4F03C02B
:1005400040E050E0BA01D7011196CF018230910509
:1005500088F09D0121503109E901288130E0322FD6
:1005600022271C91212B420F531F611D711D0297E1
:100570001296ECCFDF01AE7FAE0DBF1DE0FF0CC0C9
:100580008C9190E0982F8827092E000CAA0BBB0BAA
:10059000480F591F6A1F7B1F8B0122273327011524
:1005A00011052105310539F066277727400F511FC6
:1005B000621F731FF1CFCA0180959095CDB7DEB74A
:1005C000E6E00C94FC04E8EDF2E024E02E0FDB0101
:1005D0003D91BD0131932E13FACFDC01ECEDF2E039
:1005E00086E08E0F9D9191938E13FCCF0895693212
:1005F000A0F0FC012485283081F42585263069F49B
:10060000B696A8EDB2E084E08A0F21919D9129135E
:1006100004C08A13FACF81E0089580E00895FC01B8
:100620006A3298F08485883081F4958591110DC0E7
:100630007E96A8EDB2E084E08A0F31912D913213BD
:1006400005C08A13FACF91E001C090E0892F089588
:10065000CF93DF93ACEDB2E09C012A5F3F4FF901ED
:100660004081EC014993CE014D914193C217D307CC
:10067000B9F7DF91CF910895CF93DF93EC014E96B8
:10068000DE015A9648ED52E024E0240F3C91FC0133
:100690003193CF01FA013191AF013D932E13F6CF83
:1006A000188E198E80E48C8B1D8A8E8B40E064E15D
:1006B00070E0CE010E960E948002988F898FDF91A4
:1006C000CF910895CF93DF93EC010E9428031C8AF9
:1006D00082E08D8BCE018096DE0156964CED52E085
:1006E00026E0240F3C91FC013193CF01FA013191B6
:1006F000AF013D932E13F6CFCE018696DE015C96B8
:1007000048ED52E024E0240F3C91FC013193CF01ED
:10071000FA013191AF013D932E13F6CFBE018AE26B
:1007200090E00E94CC01DF91CF9108951F93CF9369
:10073000DF93EC01162F0E942803CE010E943C0398
:100740001AA29CA1983F18F02DA12F5F2DA3985FAE
:100750009CA3BE01812F90E00E94CC01DF91CF913C
:100760001F910895A0E0B0E0E8EBF3E00C94DF0403
:10077000EC01F62E172F042FE22ED32E0E94280311
:100780000D3D08F00CED188A8CE1800F898BCE01AD
:100790000E943C038AA18CA38BA18DA3DAA2EBA2B9
:1007A0001EA288E0800F8FA318A619A6EF2DF12FA7
:1007B000CE018A96DC012A2F281B201718F42191DC
:1007C0002D93F9CF10E0B801605F7F4F41E0CE017B
:1007D0004A960E94800298A789A7BE01C8018A96FE
:1007E0000E94CC01CDB7DEB7E7E00C94FB0489E1B1
:1007F00090E00E94610080E091E09093E30280939A
:10080000E2029093E5028093E40280E88093610025
:10081000C1E0C0936100209A289884E190E00E9492
:100820006802289A84E690E00E946802259A2D9A30
:1008300082E191E00E94200188E191E00E9421057F
:1008400089E291E00E94210581EE0E94B7002A987A
:10085000CEBD1F9281EE8F938CE491E09F938F9396
:100860000E940B050F900F900F900F900DB407FE94
:10087000FDCF1EBC80E691E00E9421050DB407FE6D
:10088000FDCF1EBC0DB407FEFDCF2A9A84E791E090
:100890000E9421058EB51F928F938AE891E09F9365
:1008A0008F930E940B0560E878E084E10E94FE00CF
:1008B00083EA91E00E94210584EF91E00E946802A2
:1008C00060E979E084E10E94FE008CEA91E00E94F8
:1008D000210584EF91E00E94680260E878E084E1FD
:1008E0000E94FE0083EA91E00E94210584EF91E0DE
:1008F0000E94680260E979E084E10E94FE008CEACF
:1009000091E00E94210584EF91E00E94680266E771
:1009100074E084E10E94FE0086EB91E00E942105D4
:1009200084E690E00E9468026EE071E082E191E06E
:100930000E94E30286EC91E00E9421050F900F9047
:100940000F900F9010E06AED71E08AEF90E00E9446
:100950000302EC010097B9F3682F8AED91E00E9441
:10096000F7026C2F882329F08AED91E00E94620340
:10097000EACF8AED91E00E940F03882321F311232F
:1009800019F02D9A10E002C02D9811E08091F1012C
:100990008130C9F68091FC018830A9F66C2F8AED70
:1009A00091E00E949603CFCF2F923F924F925F9299
:1009B0006F927F928F929F92AF92BF92CF92DF926F
:1009C000EF92FF920F931F93CF93DF93CDB7DEB7D4
:1009D000CA1BDB0B0FB6F894DEBF0FBECDBF099468
:1009E0002A88398848885F846E847D848C849B84BF
:1009F000AA84B984C884DF80EE80FD800C811B81CD
:100A0000AA81B981CE0FD11D0FB6F894DEBF0FBEFB
:100A1000CDBFED010895A0E0B0E0E1E1F5E00C9478
:100A2000E404AE014B5F5F4FFA0161917191AF0138
:100A30008091E4029091E5020E945105E2E00C945D
:100A400000050F931F93CF93DF93E091E402F091A1
:100A5000E502238121FF1BC08C01D0E0C0E0F8013A
:100A600081918F016091E4027091E502DB0118969B
:100A7000ED91FC911997882331F00995892B79F331
:100A8000DFEFCFEFECCF8AE00995892B19F08FEFDC
:100A90009FEF02C08D2F9C2FDF91CF911F910F915F
:100AA0000895ACE0B0E0E7E5F5E00C94D4047C01F7
:100AB0006B018A01FC0117821682838181FFBDC10F
:100AC000CE0101964C01F7019381F60193FD8591CA
:100AD00093FF81916F01882309F4ABC1853239F40A
:100AE00093FD859193FF81916F01853229F4B701C0
:100AF00090E00E943907E7CF512C312C20E02032C2
:100B0000A0F48B3269F030F4803259F0833269F40A
:100B100020612CC08D3239F0803339F4216026C039
:100B20002260246023C0286021C027FD27C030ED4B
:100B3000380F3A3078F426FF06C0FAE05F9E300D99
:100B40001124532E13C08AE0389E300D1124332E09
:100B500020620CC08E3221F426FD6BC1206406C0D9
:100B60008C3611F4206802C0883641F4F60193FDFA
:100B7000859193FF81916F018111C1CF982F9F7D46
:100B80009554933028F40C5F1F4FFFE3F9830DC099
:100B9000833631F0833771F0833509F05BC022C0B2
:100BA000F801808189830E5F1F4F44244394512CA8
:100BB000540115C03801F2E06F0E711CF801A080DD
:100BC000B18026FF03C0652D70E002C06FEF7FEF9C
:100BD000C5012C870E942E072C0183012C852F77BD
:100BE000222E17C03801F2E06F0E711CF801A080B0
:100BF000B18026FF03C0652D70E002C06FEF7FEF6C
:100C0000C5012C870E9423072C012C852068222EE9
:100C1000830123FC1BC0832D90E048165906B0F4D5
:100C2000B70180E290E00E9439073A94F4CFF501D1
:100C300027FC859127FE81915F01B70190E00E941A
:100C4000390731103A94F1E04F1A51084114510418
:100C500071F7E5C0843611F0893639F5F80127FFC0
:100C600007C060817181828193810C5F1F4F08C032
:100C700060817181072E000C880B990B0E5F1F4F4E
:100C80002F76722E97FF09C090958095709561958B
:100C90007F4F8F4F9F4F2068722E2AE030E0A401D3
:100CA0000E947107A82EA81844C0853729F42F7E0A
:100CB000B22E2AE030E025C0F22FF97FBF2E8F360A
:100CC000C1F018F4883579F0B4C0803719F088374E
:100CD00021F0AFC02F2F2061B22EB4FE0DC08B2D9E
:100CE0008460B82E09C024FF0AC09F2F9660B92ED9
:100CF00006C028E030E005C020E130E002C020E17D
:100D000032E0F801B7FE07C0608171818281938172
:100D10000C5F1F4F06C06081718180E090E00E5F24
:100D20001F4FA4010E947107A82EA818FB2DFF7762
:100D30007F2E76FE0BC0372D3E7FA51450F474FE37
:100D40000AC072FC08C0372D3E7E05C0BA2C372D74
:100D500003C0BA2C01C0B52C34FF0DC0FE01EA0D52
:100D6000F11D8081803311F4397E09C032FF06C045
:100D7000B394B39404C0832F867809F0B39433FD01
:100D800013C030FF06C05A2CB31418F4530C5B1870
:100D9000B32CB31468F4B70180E290E03C870E9462
:100DA0003907B3943C85F5CFB31410F43B1801C058
:100DB000312C34FF12C0B70180E390E03C870E94E1
:100DC00039073C8532FF17C031FD03C088E790E04A
:100DD00002C088E590E0B7010CC0832F867859F0F7
:100DE00031FF02C08BE201C080E237FD8DE2B70126
:100DF00090E00E943907A51438F4B70180E390E031
:100E00000E9439075A94F7CFAA94F401EA0DF11D14
:100E10008081B70190E00E943907A110F5CF3320FF
:100E200009F451CEB70180E290E00E9439073A946C
:100E3000F6CFF7018681978102C08FEF9FEF2C9646
:100E4000E2E10C94F004FC01059061507040011047
:100E5000D8F7809590958E0F9F1F0895FC016150E3
:100E6000704001900110D8F7809590958E0F9F1FCC
:100E700008950F931F93CF93DF93FB01238121FDEF
:100E800003C08FEF9FEF28C022FF16C04681578115
:100E9000248135814217530744F4A081B1819D011B
:100EA0002F5F3F4F318320838C93268137812F5FC3
:100EB0003F4F3783268310C0EB01092F182F008482
:100EC000F185E02D0995892BE1F68E819F810196B0
:100ED0009F838E83812F902FDF91CF911F910F9150
:100EE0000895FA01AA27283051F1203181F1E894C0
:100EF0006F936E7F6E5F7F4F8F4F9F4FAF4FB1E00D
:100F00003ED0B4E03CD0670F781F891F9A1FA11D07
:100F1000680F791F8A1F911DA11D6A0F711D811D08
:100F2000911DA11D20D009F468943F912AE0269FCD
:100F300011243019305D3193DEF6CF010895462F2C
:100F40004770405D4193B3E00FD0C9F7F6CF462F0D
:100F50004F70405D4A3318F0495D31FD4052419376
:100F600002D0A9F7EACFB4E0A69597958795779533
:100F70006795BA95C9F700976105710508959B01BA
:100F8000AC010A2E06945795479537952795BA9543
:100F9000C9F7620F731F841F951FA01D0895F89451
:020FA000FFCF81
:100FA20000000003000000005A00530000000A0085
:100FB200001854555810002465746865726E657483
:100FC20020696E697465640D0073746172742074B3
:100FD20065737420656E6332386A363020636F6DD4
:100FE2006D756E69636174696F6E0D0073656E7401
:100FF200206164647265737320307825780D0A006D
:1010020073656E7420636D6420726561642064612F
:1010120074610D00656E6332386A36302064656132
:1010220063746976617465640D00656E6332386A53
:1010320036302072657475726E20307825303278C1
:101042000D0A006C656473206F6E0D006C6564732D
:10105200206F66660D006C6564732066756E63743E
:10106200696F6E730D006172702069702075647013
:0A10720020696E697465640D0000CA
:00000001FF
